:100000000C945E000C9486000C9486000C94860080
:100010000C9486000C9486000C9486000C94860048
:100020000C9486000C9486000C9486000C94860038
:100030000C9486000C9486000C9486000C94860028
:100040000C942D170C9486000C949D170C94771724
:100050000C9486000C9486000C9486000C94860008
:100060000C9486000C948600000000080002010039
:100070000003040700000000000000000000000072
:10008000250028002B0000000000240027002A0083
:10009000040404040404040402020202020203032E
:1000A0000303030301020408102040800102040836
:1000B0001020010204081020CF17BA2111241FBEFE
:1000C000CFEFD8E0DEBFCDBF12E0A0E0B1E0EAE8BC
:1000D000F6E502C005900D92AC3FB107D9F724E0D8
:1000E000ACEFB2E001C01D92A33CB207E1F710E013
:1000F000CDE5D0E004C02197FE010E947F26CC35DB
:10010000D107C9F70E942B190C94382B0C940000CE
:100110008CBD9DBD089520E3FC0120833296862F7F
:1001200082958F706F706A3030F4605D6293682FD3
:100130008111F5CF0895695CF9CF90E0FC01EC5591
:10014000FF4F249180579F4FFC018491882399F0A1
:1001500090E0880F991FFC01EA57FF4FA591B491D9
:10016000FC01E458FF4F859194918FB7F894EC917E
:10017000E22BEC938FBF0895FC01818D928D089541
:1001800008958E50806480937C0080917A00806412
:1001900080937A0080917A0086FDFCCF8091780070
:1001A0009091790008953FB7F89480916F039091F2
:1001B0007003A0917103B091720326B5A89B05C08E
:1001C0002F3F19F00196A11DB11D3FBFBA2FA92FD6
:1001D000982F8827BC01CD01620F711D811D911DD3
:1001E00042E0660F771F881F991F4A95D1F708953F
:1001F0008F929F92AF92BF92CF92DF92EF92FF9237
:100200006B017C010E94D3004B015C01C114D1043D
:10021000E104F104B9F00E94D300681979098A0950
:100220009B09683E73408105910580F321E0C21A65
:10023000D108E108F10888EE880E83E0981EA11C21
:10024000B11CE4CFFF90EF90DF90CF90BF90AF90C4
:100250009F908F9008952FB7F89460916B037091E1
:100260006C0380916D0390916E032FBF0895DC01A4
:10027000ED91FC910190F081E02D0994AF92BF9235
:10028000CF92DF92EF92FF920F931F93CF93DF9362
:100290006C017B018B01040F151FEB015E01AE1891
:1002A000BF08C017D10759F06991D601ED91FC91B3
:1002B0000190F081E02DC6010995892B79F7C501E0
:1002C000DF91CF911F910F91FF90EF90DF90CF9032
:1002D000BF90AF900895FC01538D448D252F30E0E1
:1002E000842F90E0821B930B541710F0CF96089543
:1002F00001970895FC01918D828D981761F0A28D70
:10030000AE0FBF2FB11D5D968C91928D9F5F9F7335
:10031000928F90E008958FEF9FEF0895FC01918DEB
:10032000828D981731F0828DE80FF11D858D90E058
:1003300008958FEF9FEF0895FC01918D228D892FF5
:1003400090E0805C9F4F821B91098F7399270895DD
:1003500080E993E00E949C0121E0892B09F420E0D0
:10036000822F089580E090E0892B29F00E94A80157
:1003700081110C9400000895FC01A48DA80FB92FE1
:10038000B11DA35ABF4F2C91848D90E001968F73BD
:100390009927848FA689B7892C93A089B1898C91DC
:1003A000837080648C93938D848D981306C002882B
:1003B000F389E02D80818F7D80830895EF92FF92F5
:1003C0000F931F93CF93DF93EC0181E0888F9B8D78
:1003D0008C8D98131AC0E889F989808185FF15C032
:1003E0009FB7F894EE89FF896083E889F989808155
:1003F0008370806480839FBF81E090E0DF91CF9124
:100400001F910F91FF90EF900895F62E0B8D10E045
:100410000F5F1F4F0F731127E02E8C8D8E110CC0B4
:100420000FB607FCFACFE889F989808185FFF5CFFF
:10043000CE010E94BC01F1CFEB8DEC0FFD2FF11D21
:10044000E35AFF4FF0829FB7F8940B8FEA89FB893C
:1004500080818062CFCFCF93DF93EC01888D88239A
:10046000B9F0AA89BB89E889F9898C9185FD03C017
:10047000808186FD0DC00FB607FCF7CF8C9185FFFC
:10048000F2CF808185FFEDCFCE010E94BC01E9CF84
:10049000DF91CF9108950895CF93DF93EC018C8580
:1004A0009D85DC01ED91FC910288F389E02D099591
:1004B000288D398D285031092330310588F44C8D31
:1004C0005D8D6E8D7F8D141615061606170644F485
:1004D00097FD06C028A139A1280F391F39A328A3E9
:1004E000DF91CF9108950F931F93CF93DF93EC018A
:1004F0008EA1811110C08C859D85DC01ED91FC9150
:100500000284F385E02D099597FF11C0DF91CF910B
:100510001F910F910895E881F9810084F185E02D04
:10052000CE010995892B39F78FEF9FEFEFCF488DDB
:10053000598D9A01285031092330310538F70C8D37
:100540001D8D2E8D3F8D101611061206130634F4E4
:1005500028A139A12F5F3F4F39A328A34A30510565
:10056000A9F62FA138A52150310938A72FA3232B95
:1005700069F629E030E0398F288FC8CF2F923F925B
:100580004F925F926F927F928F929F92AF92BF92A3
:10059000CF92DF92EF92FF920F931F93CF93DF934F
:1005A000EC010E942B014B015C0184E0482E512C90
:1005B00006E010E098E0292E312C29E0622E712C03
:1005C00037E0E32EF12C45E0C42ED12C888D998D97
:1005D00008970397F8F00E942B01681979098A0996
:1005E0009B0929A53AA54BA55CA56217730784074B
:1005F000950780F4E881F9810084F185E02DCE0132
:100600000995892B11F56DA57EA58FA598A90E9446
:10061000F800DCCF888D998D0897039708F4A5C062
:100620008DEF9FEFDF91CF911F910F91FF90EF9092
:10063000DF90CF90BF90AF909F908F907F906F9002
:100640005F904F903F902F900895CE010E947302CB
:10065000B82E888D998D9C012850310923303105A1
:1006600008F440C08530910509F441C087309105F8
:1006700009F45AC0049709F074C0AAA1BBA18C91D7
:10068000B81214C0CD0101969BA38AA311968C9138
:10069000811108C0D98EC88E1C8E1D8E1E8E1F8E95
:1006A00019A218A29AE0B9121DC04DC0ECA1FDA17B
:1006B0008081B8120CC0CF0101969DA38CA38181CB
:1006C0008111F0CF81E08EA3198F088FEBCFA65B4D
:1006D000B140D1F7E75CF140B9F79DE0B912F4CF32
:1006E000F98EE88E0E942B014B015C016FCFEB2D40
:1006F0000B2C000CFF0BF097EA30F10528F72C8D3E
:100700003D8D4E8D5F8DAAE0B0E00E9400259F01D7
:10071000FF0F440B550B620F731F841F951F6C8FC7
:100720007D8F8E8F9F8FBECF8AE0B812DBCF8EA1D8
:100730008823A1F0798E688E18A61FA2888D998DC6
:100740000897039778F2598E488E86EB91E09BA329
:100750008AA387EC91E09DA38CA3C4CF398E288E09
:10076000EDCF9AE0B912BECFE9CF90E080E05ACF4A
:10077000FC01118E108E138E128E8FEF9FEFDC0115
:10078000848F958FA68FB78F11A210A286EB91E070
:1007900093A382A387EC91E095A384A316A210A64D
:1007A00017A280E395E7A0E0B0E081A792A7A3A7F6
:1007B000B4A784E690E0A0E0B0E085A796A7A7A73D
:1007C000B0AB0895CF93DF93EC018C859D85DC0160
:1007D000ED91FC910488F589E02D0995CE01DF911A
:1007E000CF910C94B803FC0120812EBD9B012150B8
:1007F000310941F051810DB407FEFDCF4EB55EBD0C
:100800004193F5CF61507109860F971F0DB407FE14
:10081000FDCF2EB5FC0120830895E091FD02F091FB
:10082000FE0280819091FC02892B80830895E091E3
:10083000FD02F091FE0290818091FC028095892357
:10084000808308958EBD00000DB407FEFDCF8EB5E8
:100850000895AF92BF92CF92DF92EF92FF920F93E3
:100860001F93CF93DF93CDB7DEB728970FB6F894D9
:10087000DEBF0FBECDBF8C017B016A0180918F036B
:100880008333E1F45801A40EB51EA016B10609F495
:100890006FC00E94170480EF0E942204812F0E94E3
:1008A0002204802F0E9422040F5F1F4FF7018191C5
:1008B0007F010E9422040E940D04E7CF5B01A40E79
:1008C000B51E8433C1F40E94170419830A838D2D49
:1008D00080688B83CC8264E070E0CE0101960E9438
:1008E000F303AE14BF0409F441C0F70181917F0105
:1008F0000E942204F6CF0E9417040F3F110509F051
:1009000028F419820A8384E08B830CC017FD17C07A
:1009100019820A8333E0169507953A95E1F7007E30
:100920000C600B8386E0C816D104A0F5F701DE0148
:100930001496EA15FB0599F081918D93FACFC801C1
:1009400026E0969587952A95E1F7807E19830A839C
:100950000115104C10F48461D7CF8C61D5CFB6014E
:100960006D5F7F4FCE0101960E94F3030E940D043C
:10097000C60128960FB6F894DEBF0FBECDBFDF913B
:10098000CF911F910F91FF90EF90DF90CF90BF908C
:10099000AF90089563E070E0CE0101960E94F303EA
:1009A000F70181917F010E942204AE14BF04C1F7B8
:1009B000DDCFCF93DF931F92CDB7DEB7898341E0C0
:1009C00050E0BE016F5F7F4F90E080E00E942904FD
:1009D0000F90DF91CF91089590E020918F03233302
:1009E00039F40C96982F990F990F990F80E008957C
:1009F0004896F8CFDA01E0910003F0E0FE2FEE27F1
:100A0000E60FF71F90E0982F8827A901BD018E0FF0
:100A10009F1F0C942904CF93DF9300D0CDB7DEB78E
:100A200079836A8322E030E0AE014F5F5F4F60E17F
:100A300070E00E94FA040F900F90DF91CF9108951B
:100A4000CF93DF9300D0CDB7DEB779836A8322E0FE
:100A500030E0AE014F5F5F4F64E070E00E94FA0447
:100A60000F900F90DF91CF910895CF93DF931F9256
:100A7000CDB7DEB72091000330E0322F2227260FBA
:100A8000371F90E0982F8827498341E050E0BE014E
:100A90006F5F7F4F820F931F0E9429040F90DF9199
:100AA000CF910895CF93DF931F92CDB7DEB76983BF
:100AB000DC01ED91FC910280F381E02D41E050E0FA
:100AC000BE016F5F7F4F09950F90DF91CF91089521
:100AD000FC019485FB018485981303C081E0943068
:100AE00008F080E00895CF93DF931F92CDB7DEB773
:100AF0006983DC01ED91FC910280F381E02D41E0FE
:100B000050E0BE016F5F7F4F09950F90DF91CF914D
:100B100008950895FF920F931F93CF93DF93EB01F6
:100B2000FC01178A168A2A81211109C02B81211103
:100B300006C02C81211103C02D81222301F1411512
:100B40005105E9F08A01FC01F08C80E591E00E94FA
:100B50008800AE014E5F5F4F24E030E06CE070E053
:100B60008F2D0E94FA04B8018F2D0E940B0581E0A1
:100B700090E0DF91CF911F910F91FF90089580E059
:100B8000F7CFFC01848595850895FC0184899589BA
:100B9000089524EB31E0FC0131832083FB0140897F
:100BA000518962897389FC0142835383648375830D
:100BB0000895DC01ED91FC91048CF58DE02D0994F4
:100BC000FC0145A756A767A770AB0895FC0165A572
:100BD00076A587A590A90895FC0141A752A763A710
:100BE00074A70895FC0161A572A583A594A5089535
:100BF00021E0FC0184859585892B09F420E0822F72
:100C00000895DC011C968D919C91DC01ED91FC9185
:100C10000688F789E02D0994DC011C968D919C9142
:100C2000DC01ED91FC910088F189E02D09940F938E
:100C30001F93CF93DF9300D000D000D0CDB7DEB7A5
:100C4000DC011C968D919C91DC01ED91FC91068458
:100C5000F785E02D24EB31E03A832983DB011296FE
:100C60000D911D912D913C9115970B831C832D8324
:100C70003E83BE016F5F7F4F099526960FB6F894AD
:100C8000DEBF0FBECDBFDF91CF911F910F910895B1
:100C9000DC011C968D919C91DC01ED91FC9106800C
:100CA000F781E02D0994DC011C968D919C91DC016B
:100CB000ED91FC910484F585E02D09940F931F9329
:100CC000FC01808D918D08970397B0F4048D158DEC
:100CD000268D378D0F3F8FEF18072807380761F0F3
:100CE00040A151A1052E000C660B770B81E0401747
:100CF0005107620773070CF480E01F910F9108956C
:100D0000FC01768765870895DC01ED91FC9102A0D6
:100D1000F3A1E02D099591E089270895862F089584
:100D200081E08627089521E0FC018485843008F065
:100D300020E0822F0895089590E080E00895FB015F
:100D400001900020E9F73197AF01461B570BDC01FA
:100D5000ED91FC910280F381E02D09948F929F9296
:100D6000AF92BF92EF92FF920F931F93CF93DF93B7
:100D7000CDB7DEB7A1970FB6F894DEBF0FBECDBFDB
:100D80007C01FA01CB0119A2223008F42AE08E017D
:100D90000F5D1F4F822E912CB12CA12CBF01A501FC
:100DA00094010E94BF24F901CA016A300CF5605D0C
:100DB000D8016E938D01232B242B252B79F790E0FE
:100DC00080E0109721F0BD01C7010E949F06A19607
:100DD0000FB6F894DEBF0FBECDBFDF91CF911F914C
:100DE0000F91FF90EF90BF90AF909F908F900895DC
:100DF000695CDECF8F929F92AF92BF92CF92DF92CB
:100E0000EF92FF920F931F93CF93DF937C018B019F
:100E10006C0182E0C80ED11C4701E5E08E0E911CEA
:100E2000D0E0C0E0F60141916F0150E070E060E079
:100E30002AE0C8010E94AE065C016EE2C8010E9471
:100E400037018A0D9B1DC80FD91FC814D90451F74B
:100E5000F701458150E070E060E02AE0C8010E949F
:100E6000AE068C0F9D1FDF91CF911F910F91FF90C8
:100E7000EF90DF90CF90BF90AF909F908F900895AC
:100E800062EE71E00C949F06CF92DF92EF92FF9298
:100E90000F931F93CF93DF938C016B01770FEE08B5
:100EA000FF08F7FE1FC06DE20E943701EC014427E6
:100EB0005527BA014C195D096E097F092AE0C8015E
:100EC0000E94AE06C80FD91FC8010E9440078C0FB0
:100ED0009D1FDF91CF911F910F91FF90EF90DF90B9
:100EE000CF9008952AE0B701A6010E94AE06EC015A
:100EF000EBCFEF92FF920F931F93CF93DF93EC0111
:100F00008B017A01888D998D029744F48C859D859B
:100F10000E94400782E090E0998F888F8C859D85A4
:100F2000DC01ED91FC910280F381E02DA701B80175
:100F3000DF91CF911F910F91FF90EF9009940F9344
:100F40001F93CF93DF938C01D0E0C0E06115710552
:100F500019F00E949F06EC01C8010E9440078C0F07
:100F60009D1FDF91CF911F910F9108951F93CF93F4
:100F7000DF93EC01162F888D998D029744F48C85B0
:100F80009D850E94400782E090E0998F888F8C8534
:100F90009D85DC01ED91FC910190F081E02D612FA8
:100FA000DF91CF911F9109946115710511F00C9497
:100FB0009F0690E080E00895FC0180819181009778
:100FC00011F00C94212708950C9421270C942127CB
:100FD000AF92BF92CF92DF92EF92FF920F931F9347
:100FE000CF93DF9300D000D0CDB7DEB78C016B017B
:100FF0007A0180918F038333E9F45B016801C40EA9
:10100000D51EC016D106A9F10E9417048FE00E94D8
:101010002204812F0E942204802F0E9422040F5F4D
:101020001F4F80E00E942204F50181935F010E941E
:101030000D04E7CF843369F50E94170419830A83EE
:101040008F2D8F778B83EC8264E070E0CE01019668
:101050000E94F303A70170E060E0C6010E948928A6
:10106000E114F10421F0B701C6010E94F3030E94CC
:101070000D04C7010F900F900F900F90DF91CF914B
:101080001F910F91FF90EF90DF90CF90BF90AF90A6
:1010900008950E9417040F3F110509F030F41982DA
:1010A0000A831B8263E070E0D1CF17FD0BC0198269
:1010B0000A8333E0169507953A95E1F7007E0860BC
:1010C0000B83F0CFC80126E0969587952A95E1F726
:1010D000807E19830A830115104C18F480618B837C
:1010E000E1CF8861FCCFCF93DF931F92CDB7DEB7FE
:1010F0002091000330E0322F2227260F371F90E087
:10110000982F882741E050E0BE016F5F7F4F820F2C
:10111000931F0E94E80789810F90DF91CF91089576
:10112000CF93C82F462F61E070E00E94350561E043
:1011300070E08C2F0E9473088111F9CFCF91089530
:10114000CF93C82F80E591E00E94880068E070E0AE
:101150008C2FCF910C949008CF93C82F80E591E00D
:101160000E94880060E170E08C2FCF910C94900871
:10117000CF93DF93EC01888D843020F40E94AC087B
:1011800084E0888FDF91CF910895CF93C82F80E5B9
:1011900091E00E94880063E070E08C2FCF910C9466
:1011A0007308CF93DF93EC018C858430D0F40E94D8
:1011B000C508843189F0882379F0883169F021E00D
:1011C0008C3159F4E881F9810084F185E02DCE015C
:1011D000099521E0892B09F420E0822FDF91CF913E
:1011E000089580E0FBCFCF92DF92EF92FF92CF93F2
:1011F000DF93EC018C85843068F40E94A0080E9483
:101200002B016B017C018C850E94C508811109C0EE
:1012100084E08C87DF91CF91FF90EF90DF90CF90AB
:10122000089561E070E080E090E00E94F8000E9484
:101230002B01AB01BC014C195D096E097F098D853D
:101240009E85B0E0A0E0481759076A077B07D8F2EF
:101250008C850E94AC08DCCFCF93FC01C08D80E56B
:1012600091E00E94880060E270E08C2F0E9490085C
:1012700062E070E08C2F0E94730884FD16C062E06B
:1012800070E08C2F0E94730883FF0AC048E162E07F
:1012900070E08C2F0E94350580E090E0CF9108959A
:1012A00080E591E00E948800E3CF40E162E070E0D9
:1012B0008C2F0E94350581E0F0CFCF93DF931F92F2
:1012C000CDB7DEB741E050E0BE016F5F7F4F90E0E9
:1012D00080E00E94E80789810F90DF91CF91089507
:1012E000CF93DF93C4E1D0E00E945D09882361F0D1
:1012F00061E070E080E090E00E94F8002197A1F7A3
:1013000080E0DF91CF91089581E0FBCF1F93CF93D1
:10131000DF931F92CDB7DEB7182F80E591E00E94D2
:101320008800812F0E94EC0427E0129FF001112415
:10133000ED58FC4F22813381377041E050E0BE010F
:101340006F5F7F4F820F931F0E94E80789810F9084
:10135000DF91CF911F910895FC01808D843040F47E
:10136000218D328D232B21F00E94860990E0089573
:101370008FEF9FEF0895CF93DF93FC0124852430F6
:1013800028F08FEF9FEFDF91CF910895EC0101904E
:10139000F081E02D0084F185E02D0995892B89F3FA
:1013A0008C850E94860990E0EECFDA01E09100037F
:1013B000F0E0FE2FEE27E60FF71F90E0982F88272A
:1013C000A901BD018E0F9F1F0C94E8078F929F9279
:1013D000AF92BF92CF92DF92EF92FF921F93CF9383
:1013E000DF93CDB7DEB72C970FB6F894DEBF0FBEF4
:1013F000CDBF20918F0314E0222339F16B017C01D2
:1014000080E591E00E9488005E0127E0A20EB11CF9
:10141000450110E063E070E0812F0E947308F40141
:1014200081934F01882349F11F5F143099F710E031
:10143000F50181915F018D31D9F08831C9F08A5170
:101440008230B0F01F5F143099F7812F2C960FB6C1
:10145000F894DEBF0FBECDBFDF91CF911F91FF90FB
:10146000EF90DF90CF90BF90AF909F908F900895B6
:1014700060E170E0812F0E949008A12EB12C83EED4
:1014800093E00197F1F742E870E060E0812F0E945D
:1014900035054FEF62E070E0812F0E943505B601FF
:1014A000C114D10491F48091060190910701019635
:1014B0008115F0EC9F0708F45CC0909307018093BE
:1014C00006016091060170910701812F0E9420059D
:1014D00086E0E2E1F1E0DE01119601900D928A953D
:1014E000E1F7F70183818F778C8384818D838581F8
:1014F0008E83A7014E5F5F4F24E030E06CE070E028
:10150000812F0E94FA04B601812F0E940B0526E06C
:1015100030E0AE014F5F5F4F66E070E0812F0E94C8
:10152000FA0461E070E0812F0E94900827E02A9D74
:10153000C0012B9D900D11249C012D583C4F790129
:10154000F9011182108222E030E0AE01455F5F4F69
:1015500068E270E0812F0E94D5098B859C859827D1
:1015600089279827F7019383828316821582148234
:101570006CCF80E090ECA1CFCF92DF92EF92FF9200
:101580000F931F93CF93DF9300D000D000D0CDB73F
:10159000DEB78C016B017A01FC01808D843010F480
:1015A0000E94AC0884EB91E09A838983F6018281E2
:1015B0009381A481B5818B839C83AD83BE83B70166
:1015C000CE0101960E94E609F801808F8430A0F4D4
:1015D000F586E486128E118E81E026960FB6F89479
:1015E000DEBF0FBECDBFDF91CF911F910F91FF9056
:1015F000EF90DF90CF90089580E0EFCFAF92BF9251
:10160000CF92DF92EF92FF920F931F93CF93DF93CE
:1016100000D000D000D0CDB7DEB7082F6B0180E539
:1016200091E00E9488009E012F5F3F4F7901590190
:1016300010E063E070E0812F0E947308F501819350
:101640005F01882341F11F5F143099F710E0F70123
:1016500081917F018D31D1F08831C1F08A51823082
:10166000A8F01F5F143099F7812F26960FB6F894D3
:10167000DEBF0FBECDBFDF91CF911F910F91FF90C5
:10168000EF90DF90CF90BF90AF90089560E170E051
:10169000812F0E949008E12EF12C83EE93E00197B8
:1016A000F1F7402F70E060E0812F0E9435054FEF89
:1016B00062E070E0812F0E943505B601CD2889F4E3
:1016C000809106019091070101968115F0EC9F072A
:1016D00098F1909307018093060160910601709143
:1016E0000701812F0E94200561E070E0812F0E9498
:1016F000900827E02E9DC0012F9D900D11249C0184
:101700002D583C4F7901F9011182108222E030E01E
:10171000AE014B5F5F4F68E270E0812F0E94D509F8
:101720008D819E81982789279827F701938382834B
:1017300016821582148298CF80E090ECCACFCF92A7
:10174000DF92EF92FF921F93CF93DF93EC017B0127
:101750006A018C85843048F40E94C508882319F0FA
:101760008C850E94A00884E08C87F7018281938198
:10177000A481B5810097A105B10551F490E080E006
:10178000DF91CF911F91FF90EF90DF90CF90089560
:101790008F3F9F4FAF4FBF4F89F380918F038111D0
:1017A00003C084E08C87EACF70E060E081E20E94B1
:1017B000FE0A182F8C87843008F780E591E00E949C
:1017C0008800A7014E5F5F4F24E030E06CE070E0DE
:1017D000812F0E94FA04B601812F0E940B0564E05C
:1017E00070E0812F0E9490080E942B016B017C0108
:1017F0008C850E94C508873109F18C31F9F0882366
:1018000009F4BCCF0E942B01AB01BC014C195D094E
:101810006E097F098D859E85B0E0A0E0841795074D
:10182000A607B70738F061E070E080E090E00E9422
:10183000F800DECF8C850E94AC08B3CF81E090E049
:101840009FCF0F931F93CF93DF93EC018B01888D74
:10185000843010F40E94AC0880918F03811107C07E
:1018600094E0988FDF91CF911F910F910895B80167
:1018700082E00E94FE0A888F843030F41D870C8736
:101880001A8E198E81E0EECF80E0ECCF7F928F929E
:101890009F92AF92BF92CF92DF92EF92FF920F93FF
:1018A0001F93CF93DF9300D0CDB7DEB7782E8B0197
:1018B0004A01590122E030E0AE014F5F5F4F64E220
:1018C00070E00E94D509E980FA80FE24EF24FE240E
:1018D000E00EF11E9701377040918F03072D10E045
:1018E000433309F042C0085F1F4F102F0027110F2C
:1018F000110F110FC901800F911F4733C9F1A901C1
:101900004A0D5B1D4130584098F160E078E06B0172
:10191000C21AD30AA601B4010E942904A5014C19D8
:101920005D09B4016C0D7D1DC8010E942904EA0CFB
:10193000FB1CF982EA8222E030E0AE014F5F5F4F8C
:1019400064E270E0872D0E94FA040F900F90DF91FF
:10195000CF911F910F91FF90EF90DF90CF90BF90AC
:10196000AF909F908F907F900895005F1F4FBDCFE5
:10197000A501B401DACFEF92FF921F93CF93DF93CB
:1019800000D0CDB7DEB7182F22E030E0AE014F5FB8
:101990005F4F60E270E00E94D509E980FA80FE2482
:1019A000EF24FE2422E030E0AE014F5F5F4F60E2A3
:1019B00070E0812F0E94D50989819A819827892713
:1019C0009827E816F90689F487E0189FF00111249A
:1019D000ED58FC4FF582E482C7010F900F90DF9124
:1019E000CF911F91FF90EF9008957C01DBCF1F9363
:1019F000CF93DF93182F80E591E00E948800812F1C
:101A00000E94BB0CEC0163E070E0812F0E94730820
:101A1000873121F08C3111F0D0E0C0E0CE01DF91B0
:101A2000CF911F910895CF93DF93EC018C85843083
:101A300060F40E94C508873111F08C3131F48C8537
:101A40000E94F70C8115984088F3DF91CF9108959B
:101A5000FC018485843010F40C94F70C90E080E055
:101A600008959F92AF92BF92CF92DF92EF92FF9232
:101A70000F931F93CF93DF938C015B01942EE52E80
:101A8000FC01C688D788F08C80E591E00E94880030
:101A90008F2D0E94BB0CC92DDE2D8C179D0708F4DD
:101AA000EC019E01A501B6018F2D0E94460CF801A4
:101AB000868997898C0F9D1F978B868BCE01DF912E
:101AC000CF911F910F91FF90EF90DF90CF90BF903B
:101AD000AF909F9008958F929F92AF92BF92CF92B6
:101AE000DF92EF92FF920F931F93CF936C015B01F4
:101AF0008A01FC01C485C430F0F57A0141305840B8
:101B000018F0E12C88E0F82E80E591E00E94880032
:101B10008C2F0E94BB0C4C0163E070E08C2F0E9464
:101B20007308873111F08C3149F58E149F0460F3EE
:101B300080E591E00E9488009701A50170E060E0D7
:101B40008C2F0E94460C60E270E08C2F0E9490085F
:101B500062E070E08C2F0E94730884FD17C063E080
:101B600070E08C2F0E94730881110BC081E090E01F
:101B7000F6019383828310E000E010C0F12CE12C89
:101B8000D7CF80E591E00E948800E2CF40E162E09B
:101B900070E08C2F0E943505EF2841F3C801CF91EA
:101BA0001F910F91FF90EF90DF90CF90BF90AF907B
:101BB0009F908F900895FF920F931F93CF93DF9381
:101BC00000D0CDB7DEB7F82E22E030E0AE014F5F97
:101BD0005F4F66E270E00E94D50909811A811027E3
:101BE0000127102722E030E0AE014F5F5F4F66E231
:101BF00070E08F2D0E94D50989819A8198278927C5
:101C000098270817190749F4C8010F900F90DF9122
:101C1000CF911F910F91FF9008958C01E3CF1F93F7
:101C2000CF93DF93182F87E0189FE0011124CD5840
:101C3000DC4F88819981009761F480E591E00E94F2
:101C40008800812F0E94DB0D2E81821B91099983D0
:101C50008883DF91CF911F910895FC0184858430A2
:101C600010F40C940F0E90E080E008954F925F9274
:101C70007F928F929F92AF92BF92CF92DF92EF921C
:101C8000FF920F931F93CF93DF9300D0CDB7DEB7B2
:101C9000782E6B014A01A82EB12C27E0829FC0014B
:101CA0001124FC01ED58FC4F7F010081118180E57A
:101CB00091E00E9488000815190554F4872D0E94B0
:101CC000DB0DF70126818C01021B110911830083B2
:101CD0000115110529F563E070E0872D0E94730856
:101CE000843159F0882349F001E010E08C3111F47F
:101CF00010E000E0119501951109C8010F900F90B7
:101D0000DF91CF911F910F91FF90EF90DF90CF90D7
:101D1000BF90AF909F908F907F905F904F9008956D
:101D2000801691060CF4840187E08A9DF0018B9D5A
:101D3000F00D1124ED58FC4FE280F380C114D10462
:101D400051F12701F7E05F22872D0E94EC04840DFA
:101D5000951D20918F03273309F453C09801240D5A
:101D6000351D2130384008F44CC020E038E04901EE
:101D700084189508A401B6010E94E8072601480CC2
:101D8000591C6801C818D908872D0E94EC04A601C7
:101D9000B2010E94E807E00EF11E87E08A9DF00183
:101DA0008B9DF00D1124ED58FC4FF382E2822081CF
:101DB0003181201B310B318320838681800F912F4D
:101DC000911D8A3F910510F4232BF1F487E08A9D41
:101DD000F0018B9DF00D1124ED58FC4F1682F98215
:101DE000EA8222E030E0AE014F5F5F4F68E270E0D0
:101DF000872D0E94FA0460E470E0872D0E9490080D
:101E00007CCFA801B601C5CF868377CFCF93DF9370
:101E1000FC01218D328D2115310529F48FEF9FEFC3
:101E2000DF91CF910895EC01808D4217530708F0A0
:101E3000A9010E94360E1816190684F7298D3A8DCD
:101E4000281B390B3A8F298FEBCF0F931F93CF931A
:101E5000DF931F92CDB7DEB7FC01218D328D232B8E
:101E600041F48FEF9FEF0F90DF91CF911F910F9172
:101E700008958C0141E050E0BE016F5F7F4FFC018F
:101E8000808D0E94360E181619065CF7F801818DB8
:101E9000928D0197928F818F898190E0E4CFCF93CB
:101EA000DF931F92CDB7DEB741E050E0BE016F5F18
:101EB0007F4FFC0184850E94360E1816190634F4F3
:101EC000898190E00F90DF91CF9108958FEF9FEF80
:101ED000F9CFFC018485843010F40C94360E90E028
:101EE00080E008950F931F93CF93DF9300D0CDB779
:101EF000DEB7FC0124852430E0F48C0180E591E01C
:101F00000E94880022E030E0AE014F5F5F4F60E149
:101F100070E0F80184850E94D50989819A8198270B
:101F2000892798270F900F90DF91CF911F910F91E4
:101F3000089590E080E0F6CF0F931F93CF93DF9347
:101F400000D0CDB7DEB7FC0124852430E0F48C014D
:101F500080E591E00E94880022E030E0AE014F5F12
:101F60005F4F64E070E0F80184850E94D5098981A3
:101F70009A819827892798270F900F90DF91CF910A
:101F80001F910F91089590E080E0F6CFDC0184EB83
:101F900091E08D939D9384E0FB0101900D928A95D1
:101FA000E1F70895EF92FF920F931F93CF93DF9382
:101FB00000D000D0CDB7DEB78C017B01FB0184855A
:101FC0008430A8F084EB91E0F80191838083128241
:101FD000138214821582C8010F900F900F900F90FA
:101FE000DF91CF911F910F91FF90EF90089580E5C1
:101FF00091E00E94880024E030E0AE014F5F5F4F27
:102000006CE070E0F70184850E94D509BE016F5F26
:102010007F4FC8010E94C60FDECF0F931F93CF934F
:10202000DF93CDB7DEB728970FB6F894DEBF0FBEAB
:10203000CDBF8C01D80159964D915C915A974115AD
:10204000510551F0ED91FC91048CF58DE02D70E07F
:1020500060E0C8010995EECFF801808D0E940F0E57
:10206000892BB1F148E050E0BE016F5F7F4FD8018E
:1020700058968C910E94360E18161906F4F4D80161
:10208000509684E0FE01319601900D928A95E1F719
:102090008D8190E0982F88272E81820F911DF80165
:1020A000958B848B8F81282F30E0322F22278885D3
:1020B000820F932F911D928F818F28960FB6F894DF
:1020C000DEBF0FBECDBFDF91CF911F910F9108955D
:1020D00090E080E0F2CF4F925F926F927F928F926A
:1020E0009F92AF92BF92CF92DF92EF92FF920F93A7
:1020F0001F93CF93DF93CDB7DEB763970FB6F894F6
:10210000DEBF0FBECDBF7C016B013A01FB0120E0B9
:1021100090E080E06AE03191332309F461C040ED42
:10212000430F4A3008F04DC0689FA001699F500DD1
:102130001124CA01C097830F911D37FD9A958F3FD7
:10214000910549F340F3F701428153816481758120
:102150008091650490916604A0916704B091680431
:10216000481759076A077B0709F40DC28701085F02
:102170001F4F0E942B016F7077277C5FC8010E9460
:10218000210C813009F004C284EB91E09A838983A9
:10219000F70182819381A481B5818B839C83AD8378
:1021A000BE8345E350E0BE016F5F7F4FC8010E94D0
:1021B0008A05892BA9F5D12CC12CC8010E94B80829
:1021C00017C03E3209F0BFCF233009F4BCCFD30192
:1021D000A20FB11D12968C932F5F90E080E09BCFF1
:1021E000233009F0B0CFF3018583CC24C394D12CE4
:1021F000C60163960FB6F894DEBF0FBECDBFDF9168
:10220000CF911F910F91FF90EF90DF90CF90BF90F3
:10221000AF909F908F907F906F905F904F900895B8
:102220000E942B01F7017783668342E050E0B701FB
:102230006A5F7F4FC8010E94310D81E090E09A8370
:10224000898342E050E0BE016F5F7F4FC8010E946A
:10225000310D80E091E09A83898342E050E0BE0135
:102260006F5F7F4FC8010E94310D1A82198242E0D0
:1022700050E0BE016F5F7F4FC8010E94310D42E008
:1022800050E0BE016F5F7F4FC8010E94310D42E0F8
:1022900050E0BE016F5F7F4FC8010E94310D5601B3
:1022A000F6018081882301F16501F60181912F01FA
:1022B000882311F08E32B1F446018A189B08181455
:1022C000190474F48D8641E050E0BE01635F7F4FD6
:1022D000C8010E94310DA401B501C8010E94310D51
:1022E0005201DECF6201E1CF1D8641E050E0BE0128
:1022F000635F7F4FC8010E94310DC12CDD24D39450
:10230000DA82C98242E050E0BE016F5F7F4FC801B0
:102310000E94310DDA82C98242E050E0BE016F5F57
:102320007F4FC8010E94310DC8010E942C09892BE2
:1023300009F441CFF3E0AF2EB12C230122E0420E8D
:10234000511CD4C0F7014281538164817581808D15
:10235000918DA28DB38D481759076A077B0709F045
:1023600008C1848D958DC59709F003C181A192A103
:102370005DEFC52EDD24DA940C970CF4ADC04CE073
:1023800050E0BE016F5F7F4FC8010E94060F8B8136
:102390009C819827892798279A8B898BF7014681FA
:1023A000578129813A814217530709F0E7C097FF07
:1023B000E5C08F7092703BEFC32EDD24DA94892B39
:1023C00009F08AC06F8078847624672476242AEF07
:1023D000C22EDD24DA946114710409F47DC0D12C7D
:1023E000C12C8D819E81982789279827C816D906E8
:1023F000F8F441E050E0BE01635F7F4FC8010E94E6
:10240000060F4D85442331F050E070E060E0C801D4
:102410000E94060F8D858111ECCF44E050E070E002
:1024200060E0C8010E94060FFFEFCF1ADF0AD9CF84
:10243000912C812C41E050E0BE016D5E7F4FC801C0
:102440000E94060F4B89842F807C09F06CC04423C6
:1024500031F050E070E060E0C8010E94060F8B8907
:102460008111E8CF42E050E0BE01615F7F4FC801BB
:102470000E94060F42E050E0BE01635F7F4FC8013B
:102480000E94060F44E050E070E060E0C8010E9446
:10249000060F42E050E0BE016F5E7F4FC8010E9410
:1024A000060F8F85988949895A898115914009F0CD
:1024B00043C0CD84DE84DC24CD24DC2481E0C81636
:1024C000D104D1F54115544009F04AC044E050E030
:1024D000B201C8010E94060F21E0A21AB10809F456
:1024E0006CCEFFEFCF16DF0609F067CE0E942B01FE
:1024F0003B014C01C8010E940D10181619060CF47E
:1025000021CF0E942B01661977098809990969383A
:1025100073418105910548F562E370E080E090E049
:102520000E94F800E7CF41E050E070E060E0C801B1
:102530000E94060F1B8A93CF54274527542770E02B
:1025400060E0C8010E94060FFFEF8F1A9F0A68140F
:10255000790409F06FCF96EFC92EDD24DA94BCCF51
:10256000E7EFCE2EDD24DA94B7CFCC24CA94DC2C4E
:10257000B3CF6EEFC62EDD24DA94AECF4CEFC42E6F
:10258000DD24DA94A9CF8EEFC82EDD24DA9430CE84
:10259000D12CC12C2DCECF92DF92EF92FF920F93D0
:1025A0001F93CF93DF93CDB7DEB7AF970FB6F894F5
:1025B000DEBF0FBECDBF7C016A0104EB11E01A83C0
:1025C00009831C861B8688EE93E0A0E0B0E08D872F
:1025D0009E87AF87B88B8CE191E09A878987188FA7
:1025E0000F8B198E1A8E1B8E1C8E84E089A31BA75D
:1025F0000AA71CA61DA61EA61FA68091590490918D
:102600005A04A0915B04B0915C048EA39FA3A8A779
:10261000B9A78B839C83AD83BE8318861F82AE01CE
:10262000465D5F4FCE0101960E946B10813091058F
:10263000B1F4D701ED91FC910488F589E02D1DA33B
:102640000CA38CA59DA5AEA5BFA58EA39FA3A8A7EF
:10265000B9A7A601BE016C5D7F4FC7010995AF9672
:102660000FB6F894DEBF0FBECDBFDF91CF911F91A3
:102670000F91FF90EF90DF90CF900895CF92DF926F
:10268000EF92FF920F931F93CF93DF93CDB7DEB7F7
:10269000AF970FB6F894DEBF0FBECDBF8C016B01B4
:1026A0007A0184EB91E09A8389831B821C821D82CC
:1026B0001E821C861B8648EE53E060E070E04D876A
:1026C0005E876F87788B2CE131E03A872987988F76
:1026D0008F8B198E1A8E1B8E1C8E24E029A39BA72C
:1026E0008AA71CA61DA61EA61FA6D8011C968C9103
:1026F000843060F40E94C508882321F0F8018485A5
:102700000E94A00884E0D8011C968C938091590403
:1027100090915A04A0915B04B0915C048EA39FA396
:10272000A8A7B9A78B839C83AD83BE8318861F821D
:10273000AE01465D5F4FB601CE0101960E946B105F
:102740000097C1F0D801ED91FC910684F785E02D4A
:1027500084EB91E09DA38CA38CA59DA5AEA5BFA500
:102760008EA39FA3A8A7B9A7A701BE016C5D7F4F49
:10277000C8010995AF960FB6F894DEBF0FBECDBF66
:10278000DF91CF911F910F91FF90EF90DF90CF904D
:1027900008957F928F929F92AF92BF92CF92DF92D5
:1027A000EF92FF920F931F93CF93DF93CDB7DEB7D6
:1027B000A6970FB6F894DEBF0FBECDBF8C01762E64
:1027C000942E852E20E2A22ECE0101967C01DC0102
:1027D000EA2D1D92EA95E9F76801F3E4CF0ED11CCA
:1027E00084EB91E09AA389A38FEF8BA38CA38DA395
:1027F0008EA343E450E0BE016F5D7F4FC6010E948F
:102800008A05019609F4BFC081E089838A8386E046
:10281000B82EBB821C82D80114966D917D918D914A
:102820009C9117970E9471266D837E838F83988772
:1028300089869A8680E890E09C878B874CE150E0FF
:10284000B701C6010E94310DFE0137968AE1DF0112
:102850001D928A95E9F74801B8E08B0E911CF401AE
:10286000D70101900D92BA94E1F740E150E0B70131
:10287000C6010E94310DF7011192AA94E9F796E082
:10288000A92EB12C40E250E0B701C6010E94310DE3
:10289000F1E0AF1AB108B1F783E6898392E89A8331
:1028A00093E59B838C8385E38D8381E08E837F8298
:1028B0009DE3988797E099878A8786E0F401DE0197
:1028C0001B9601900D928A95E1F78CE0898B8A8B9B
:1028D00065EE71E0CE0143960E949028D8011B96C8
:1028E0006C91CE0149960E948B00F8016485CE015F
:1028F0004B960E948B00D8011D966C91CE014D968F
:102900000E948B004EE150E0B701C6010E94310DDC
:10291000B3E07B121EC082E3898384E08A83F801DE
:1029200096859B8397859C8390899D8391899E83BF
:1029300096E39F838887828D8987838D8A87848D9C
:102940008B87858D8C874CE050E0B701C6010E94D3
:10295000310D87E3898386E08A8391E09B8393E04E
:102960009C838D838FE08E838AE38F838BE38887BC
:102970008FEF898749E050E0B701C6010E94310D11
:10298000C6010E942C09A6960FB6F894DEBF0FBEB2
:10299000CDBFDF91CF911F910F91FF90EF90DF900E
:1029A000CF90BF90AF909F908F907F9008950F939E
:1029B0001F93CF93DF93EC0188819981009759F0A1
:1029C0002A813B812617370730F081E0DF91CF91D4
:1029D0001F910F9108958B016F5F7F4F0E94AA276F
:1029E000009759F0998388831B830A832C813D814A
:1029F000232B59F7FC011082E8CF80E0E7CFEF925C
:102A0000FF920F931F93CF93DF9300D0CDB7DEB724
:102A10008C01DC0158968D919C910997F9F4F8018D
:102A200084859585DC01ED91FC910084F185E02D94
:102A30000995892B99F0F80184859585DC01ED9144
:102A4000FC910284F385E02D0995F82EBAE08B13F2
:102A50003CC08AE090E0F801918F808FD8015896B1
:102A60008D919C9159970A9761F497968D919C91BD
:102A70009897892B31F489E090E059969C938E9336
:102A80005897F801808D918D099709F444C0848589
:102A90009585DC01ED91FC910084F185E02D09958F
:102AA000F801208D318D2A30310531F427A130A570
:102AB000281739070CF4C9010F900F90DF91CF91BF
:102AC0001F910F91FF90EF900895FDE08F1709F48B
:102AD000A6CF082E000C990B0E946728892B09F4B9
:102AE0009ECF1A821982F982D8019796ED90FC90B8
:102AF00084E0EE0CFF1C8A95E1F740E150E070E0C5
:102B000060E0CE0101960E9468226E0D7F1DF801E3
:102B100070A767A384CF90E080E0CECF3F924F9222
:102B20005F926F927F928F929F92AF92BF92CF925D
:102B3000DF92EF92FF920F931F93CF93DF93CDB766
:102B4000DEB7EA970FB6F894DEBF0FBECDBF7C01AB
:102B50002A013B0169010E942B014B015C018701A5
:102B60000D5B1F4FC8010E940D10181619069CF02E
:102B70000E942B01681979098A099B094616570694
:102B80006806790608F466C162E370E080E090E0D0
:102B90000E94F800E7CF42E250E0BE016F5F7F4F36
:102BA000C8010E94060F89818230D1F0312C832D1B
:102BB000EA960FB6F894DEBF0FBECDBFDF91CF917E
:102BC0001F910F91FF90EF90DF90CF90BF90AF904B
:102BD0009F908F907F906F905F904F903F9008955F
:102BE000F801848995898334910501F76D817E818F
:102BF0008F8198850E9471264B015C01F6018082CD
:102C00009182A282B38246E050E0B701685F7F4FB5
:102C1000CE014D960E947328892B41F6F7018081E1
:102C20009181A281B38188169906AA06BB0608F491
:102C3000BDCF84819581A681B78188159905AA05A4
:102C4000BB0508F4B3CF89899A89AB89BC8986878B
:102C50009787A08BB18B4EEC50E070E060E0C8012C
:102C60000E94060F312CC701829698AB8FA7F701FF
:102C7000B696FAABE9AB08969CAB8BAB67019AE1D1
:102C8000C90ED11CBD96FEABEDABC701429698AF05
:102C90008FABFD97FAAFE9AF4701FEE18F0E911CB4
:102CA000F801818D928D181619060CF080CFC8019D
:102CB0000E94250F8333910509F4B2C014F58130C9
:102CC000910509F464C044F4892B51F3C8010E94B2
:102CD000250FAC01552775C08330910509F462C0FA
:102CE0000697A1F7C8010E94250FB82E44E050E0D6
:102CF000B401C8010E94060FEB2DE450FF0BAF0199
:102D000060C08A33910509F45FC084F5853391056D
:102D1000B1F1C697D9F6C8010E94250F5C01B60132
:102D2000CE0189960E94C60F8BA59CA5ADA5BEA518
:102D3000892B8A2B8B2BB1F0EDA9FEA94080518005
:102D400062807380B601CE0183960E94C60F8DA16A
:102D50009EA1AFA1B8A5A501481659066A067B0633
:102D600009F0B8CF44E050E0B60118C08B339105AC
:102D700009F440C08F3F910509F492CFA7CFC80155
:102D80000E94250FC8010E94250F382E89CFC80147
:102D90000E94250F44E050E06FA978ADC8010E9461
:102DA000060F7ECFC8010E94250FB82E44E050E0E8
:102DB00069AD7AADC8010E94060F8B2D8450990B26
:102DC000AC0170E060E0EACFC8010E94250F44E04A
:102DD00050E069A97AA9C8010E94060FF70166A10F
:102DE00077A180A591A50E94712666A377A380A7ED
:102DF00091A756CFC8010E94250F44E050E06BA96F
:102E00007CA9C8010E94060FF70162A573A584A5DD
:102E100095A50E94712662A773A784A795A740CFA6
:102E2000C8010E94250F44E050E06FA578A9C801B1
:102E30000E94060FF70162A173A184A195A10E94CF
:102E4000712662A373A384A395A366A777A780AB1B
:102E500091AB26CF33243A94AACE1F920F920FB68D
:102E60000F9211242F933F938F939F93AF93BF9310
:102E700080916B0390916C03A0916D03B0916E03F0
:102E800030916A0323E0230F2D3758F50196A11DD9
:102E9000B11D20936A0380936B0390936C03A093FE
:102EA0006D03B0936E0380916F0390917003A091B6
:102EB0007103B09172030196A11DB11D80936F0340
:102EC00090937003A0937103B0937203BF91AF917D
:102ED0009F918F913F912F910F900FBE0F901F9058
:102EE000189526E8230F0296A11DB11DD2CF1F927F
:102EF0000F920FB60F9211242F933F934F935F932E
:102F00006F937F938F939F93AF93BF93EF93FF93B1
:102F100080E993E00E94BC01FF91EF91BF91AF91D6
:102F20009F918F917F916F915F914F913F912F91E1
:102F30000F900FBE0F901F9018951F920F920FB613
:102F40000F9211242F938F939F93EF93FF93E09110
:102F5000A003F091A1038081E091A603F091A70363
:102F600082FD1BC090818091A9038F5F8F73209198
:102F7000AA03821741F0E091A903F0E0E057FC4F6B
:102F8000958F8093A903FF91EF919F918F912F913E
:102F90000F900FBE0F901F9018958081F4CF109264
:102FA00093031092920348EE53E060E070E0409388
:102FB000940350939503609396037093970386E46C
:102FC00091E0909391038093900385EC90E090932F
:102FD0009D0380939C0384EC90E090939F038093E7
:102FE0009E0380EC90E09093A1038093A00381EC7A
:102FF00090E09093A3038093A20382EC90E09093DF
:10300000A5038093A40386EC90E09093A70380939C
:10301000A6031092A9031092AA031092AB03109278
:10302000AC0384EB91E090932E0480932D041092D6
:103030002F041092300410923104109232049093B5
:1030400034048093330410923504109236041092A5
:1030500037041092380490933A0480933904109204
:103060003B0410923C0410923D0410923E04909355
:10307000400480933F041092410410924204109245
:1030800043041092440490934604809345041092A4
:103090004704109248041092490410924A049093F5
:1030A0004C0480934B0410924D0410924E041092E5
:1030B0004F04109250049093520480935104109244
:1030C0005304109254041092550410925604909395
:1030D0005E0480935D0410925F041092600410926D
:1030E00061041092620490935804809357041092E4
:1030F000590410925A0410925B0410925C0490934D
:103100006404809363041092650410926604109224
:1031100067041092680490936A0480936904109283
:103120006B0410926C0410926D0410926E049093D4
:10313000B8048093B7041092B9041092BA041092A4
:10314000BB041092BC041092AB041092AA044093EA
:10315000AC045093AD046093AE047093AF0422E8C6
:1031600031E03093A9042093A80424E02093B40410
:1031700028EE33E03093B6042093B5041092720425
:103180001092710440937304509374046093750417
:103190007093760428E531E03093700420936F0437
:1031A00028EA34E030937C0420937B042CEE31E059
:1031B00030937E0420937D049093800480937F0459
:1031C000109281041092820410928304109284045D
:1031D00080E590E0909386048093850481E080935D
:1031E000A0048093A1041092A3041092A204109250
:1031F000A5041092A4041092A7041092A60470E0F3
:1032000060E082EA94E00E94D7142091A2043091F9
:10321000A304811116C02115310519F0C9010E94BE
:1032200021271092A3041092A2041092A7041092D6
:10323000A6041092A5041092A4048FE694E00C94C6
:10324000B8031092A7041092A60464EE71E0C901BD
:103250000E949028F2CFCF93DF93CDB7DEB7C05650
:10326000D1090FB6F894DEBF0FBECDBF789484B5F8
:10327000826084BD84B5816084BD85B5826085BD72
:1032800085B5816085BD80916E00816080936E0000
:1032900010928100809181008260809381008091F2
:1032A00081008160809381008091800081608093A3
:1032B00080008091B10084608093B1008091B00063
:1032C00081608093B00080917A00846080937A005E
:1032D00080917A00826080937A0080917A00816088
:1032E00080937A0080917A00806880937A001092AF
:1032F000C100E091A003F091A10382E08083E091FE
:103300009C03F0919D031082E0919E03F0919F0336
:103310008FEC80831092A803E091A403F091A503A1
:1033200086E08083E091A203F091A3038081806115
:103330008083E091A203F091A30380818860808361
:10334000E091A203F091A303808180688083E091E3
:10335000A203F091A30380818F7D8083809162031B
:1033600081112AC010924A031092490388EE93E01B
:10337000A0E0B0E080934B0390934C03A0934D03E7
:10338000B0934E038CE191E0909348038093470300
:1033900084EB91E09093560380935503109257036A
:1033A000109258031092590310925A0384E08093AC
:1033B0005F0381E08093620384E093E090930303D2
:1033C00080930203809101038111C9C060E372E020
:1033D00080E090E00E94F800DFB6F8940AE910E07F
:1033E0008EEAE82E80E0F82E8091FF02811142C023
:1033F000F8018491F7019491E82FF0E0EE0FFF1FA0
:10340000EA57FF4FA591B4918C91982321F5E2E7FB
:10341000F0E08491F7019491F80124912223D9F0EE
:10342000882359F0833009F4E7C108F0DAC181300C
:1034300009F4E8C1823009F4E9C1E22FF0E0EE0FAF
:10344000FF1FE458FF4FA591B4918FB7F8942C91CA
:10345000922B9C938FBF8AE00E949D008CB5806167
:103460008CBD8CB580648CBD8DE00E949D008BE08E
:103470000E949D008091FF028F5F8093FF02DFBE5C
:10348000F8010491E02FF0E0EE0FFF1FE458FF4F2A
:10349000859194919093FE028093FD02F701E49050
:1034A000E092FC028AE00E949D000E940D0480E5EB
:1034B00091E00E94880084E380938F0380E80E945B
:1034C000D9040E947009882309F4ADC188E00E94E4
:1034D000D9040E945D09883009F0A5C180E10E94ED
:1034E000D9040E945D09803109F09DC180E00E94ED
:1034F000D9040E945D09182F811195C141E050E067
:10350000BE016F5F7F4F8FE190E00E94E8078981E5
:10351000833009F088C180E48093000342E06EE1CB
:1035200070E0812F0E94350542E06FE170E0812F4D
:103530000E9435051F5F143089F740E06EE170E0AE
:10354000812F0E94350540E06FE170E0812F0E94DD
:1035500035051F5F183089F781E08093010380E50E
:1035600091E00E94880046E050E060E071E089E070
:1035700090E00E94290484EB91E09A8389831B8266
:103580001C821D821E8244E050E0BE016D5F7F4FB1
:103590008FE090E00E942904009102031091030340
:1035A000D80192961D921D921D921C929597F8013A
:1035B00016A217A210A611A69A961D921D921D92F0
:1035C0001C929D9780E69AEEA0E0B0E086AB97ABA8
:1035D000A0AFB1AF80EA9FE0A0E0B0E082AF93AFD0
:1035E000A4AFB5AF3E9684E1DF011D928A95E9F75D
:1035F00086E0E0E0F1E0D801189601900D928A95FE
:10360000E1F7F801EE5BFF4FA196FFAFEEAFA19798
:1036100010820E9410222FEC37E040E050E00E9420
:10362000E124DC01CB010196A11DB11DF8018483C9
:103630009583A683B78380839183A283B383580144
:10364000F3E4AF0EB11CC5010E94B80864E470E059
:10365000C5010E94210C882309F452C10E942B014C
:103660002B013C0158EEC52E53E0D52EE12CF12C58
:1036700062E0262E912C812CA196AEADBFADA19714
:103680008C918330D1F1811134C2F801848195810C
:10369000A681B7810196A11DB11D84839583A68360
:1036A000B7830E942B016419750986099709A70140
:1036B00096010E94BF24A90161E0C8010E94C913BC
:1036C00081E0A196AEADBFADA1978C93F1E08F16CE
:1036D000910491F20E942B016419750986099709DA
:1036E000D801D6962D913D914D915C91D997261791
:1036F00037074807590708F0BDCFC5010E94B80831
:10370000F80184819581A681B7810196A11DB11D23
:1037100084839583A683B7830E942B01F801FE96CC
:1037200060837183828393838A94892809F0E8C037
:1037300080E591E00E94880000910203109103034C
:10374000B801625F7F4FCE0101960E94C60F44E030
:1037500050E0BE016D5F7F4F8FE090E00E94290432
:10376000B8016A5E7F4FCE0101960E94C60F44E009
:1037700050E0BE016D5F7F4F81E090E00E94290420
:10378000B8016E5E7F4FCE0101960E94C60F44E0E5
:1037900050E0BE016D5F7F4F85E090E00E942904FC
:1037A000B801625E7F4FCE0101960E94C60F8B81E9
:1037B0009C81AD81BE818093590490935A04A0935B
:1037C0005B04B0935C040E94D3007F738091060178
:1037D000909107016827792770930701609306018C
:1037E0008FC08730B1F08830D1F0843009F025CE19
:1037F000809180008F7D03C0809180008F778093BF
:1038000080001BCE84B58F7784BD17CE84B58F7DA5
:10381000FBCF8091B0008F778093B0000ECE809167
:10382000B0008F7DF9CF87E380938F0380E80E94FB
:10383000D9040E947009882329F188E00E94D904E4
:103840000E945D098830F1F480E10E94D9040E9451
:103850005D09182F8031B1F480E00E94D9040E94E4
:103860005D0981110FC041E050E0BE016F5F7F4FE5
:1038700089E390E00E94E8078981843019F410936D
:1038800000036ACE83E380938F0380E80E94D9040B
:103890000E947009882391F180E10E94D9040E945E
:1038A0005D09803159F582E10E94D9040E945D09C9
:1038B000823121F580E00E94D9040E945D098111C6
:1038C0001DC084E08093000315E56F961FAF6F97CE
:1038D00041E050E0BE01625A7F4F8BE190E00E94D0
:1038E00029046E961FAF6E9741E050E0BE01635A07
:1038F0007F4F8AE190E00E9429042ECE10928F0320
:1039000064EE71E080E993E00E949F0769E072E055
:1039100080E993E00E949F0769E372E080E993E009
:103920000E94D40784EB91E09A8389831B821C82D6
:103930001D821E8280E591E00E94880044E050E0F4
:10394000BE016D5F7F4F8FE090E00E94E80760E965
:1039500073E09E012F5F3F4F1901C9010E94FA06D3
:1039600080E993E00E94400769E072E080E993E01B
:103970000E949F0780E993E00E94400768EE73E091
:1039800080E090E00E94F8008FE00E94C10024E6F1
:1039900030E0DC010E9478262FEF33E040E050E079
:1039A0000E94E124122F032F8EE00E94C100BC016F
:1039B000990F880B990B0E94922320E030E040EA97
:1039C00050E40E94F12320E030EC4FE754E40E94E1
:1039D000C62520E030E040E05FE30E94592520E06A
:1039E00030E048EC52E40E94F1236B017C0180E955
:1039F00093E00E94400767E472E080E993E00E9450
:103A0000D407612F702F80E993E00E9444076CE493
:103A100072E080E993E00E94D407A7019601C701F4
:103A2000B6010E946C2661E572E081111BC046015F
:103A30005701E894B7F82FEF3FEF4FE75FE7C50175
:103A4000B4010E946C26811129C12FEF3FEF4FE78F
:103A50005FE7C501B4010E948B2318160CF01EC14C
:103A600065E572E080E993E00E949F0680E993E0BB
:103A70000E94400780E993E00E944007FF92EF9286
:103A8000DF92CF920F931F938DE592E09F938F93D8
:103A90003F922F920E94972862E972E080E993E0BA
:103AA0000E949F07809187049091880408970FB621
:103AB000F894DEBF0FBECDBF039708F071C18091AF
:103AC0007B0490917C04DC01ED91FC910084F185F4
:103AD000E02D0995892B09F45FC180917B049091B9
:103AE0007C04DC01ED91FC910284F385E02D0995C5
:103AF000E6CF843009F5F80184819581A681B781EC
:103B00000196A11DB11D84839583A683B7830E946E
:103B10002B016419750986099709A70196010E946E
:103B2000BF24A90163E0C8010E94C913A196AEADEC
:103B3000BFADA1972C92CACD813069F5F80142AD95
:103B400053AD64AD75AD9E012F5F3F4FC8010E941C
:103B50008E15382EF2E08F1398C089819A81AB813F
:103B6000BC81F80184839583A683B7830E942B01CF
:103B70006419750986099709A70196010E94BF2457
:103B8000A90163E0C8010E94C913A196AEADBFAD03
:103B9000A1973C929BCD823009F098CDF80142ADBF
:103BA00053AD64AD75AD9E012F5F3F4FC8010E94BC
:103BB0008E15382EF5E08F135FC0E3E0A196AEAD11
:103BC000BFADA197EC93F80182A193A1A4A1B5A1E7
:103BD000892B8A2B8B2B41F484E893E0A0E0B0E0A2
:103BE00082A393A3A4A3B5A3F80186A197A1A0A53E
:103BF000B1A5892B8A2B8B2B61F482A193A1A4A15F
:103C0000B5A1B695A7959795879586A397A3A0A7E5
:103C1000B1A7F80182A593A5A4A5B5A5892B8A2BE8
:103C20008B2BA9F482A193A1A4A1B5A1AC01BD01E4
:103C300033E076956795579547953A95D1F7841B6C
:103C4000950BA60BB70B82A793A7A4A7B5A7F8015E
:103C500086A197A1A0A5B1A586A797A7A0ABB1AB58
:103C600082A593A5A4A5B5A582AB93ABA4ABB5AB38
:103C700088248394912C2ACDF6E08F1306C0A19658
:103C8000AEADBFADA1971C9221CDBFEF3B121ECDB3
:103C9000A196EEADFFADA197108218CD2FEF3FEFAB
:103CA0004FE75FE4C701B6010E94672618161CF4AF
:103CB00069E572E0D7CE2FEF3FEF4FE75FECC7012A
:103CC000B6010E948B2387FDF3CF20E030E0A901ED
:103CD000C701B6010E948B2387FF5BC06DE280E9BC
:103CE00093E00E943701C701B60190582AE037EDF2
:103CF00043EA5BE30E945A252B013C010E943826CF
:103D00004B015C010E9490239B01AC01C301B201F5
:103D10000E9459252B013C012AE0B501A40180E94C
:103D200093E00E94AE066EE280E993E00E943701C4
:103D300020E030E040E251E4C301B2010E94F123EF
:103D40002B013C010E9438264B01B12CA12C2AE00A
:103D5000B501A40180E993E00E94AE06C501B4015B
:103D60000E9490239B01AC01C301B2010E9459251E
:103D700020E030E040E251E40E94F1230E94382626
:103D8000AB0170E060E02AE080E993E00E94AE06BB
:103D90006DCEC701B601AACF8FE694E00E94B803AA
:103DA00000918704109188040230110508F09CC02E
:103DB0008091A004882371F160917D0470917E044C
:103DC00080917B0490917C04DC01ED91FC91409109
:103DD0008504509186046115710509F07DC0068443
:103DE000F785E02D24EB31E063963FAF2EAF63976C
:103DF000C0908104D0908204E0908304F090840409
:103E00006796CCAEDDAEEEAEFFAE6797BE016F5AE1
:103E10007F4F65C080917B0490917C04DC01ED9123
:103E2000FC910688F789E02D0995882329F26EE92F
:103E300072E080917B0490917C040E94D40767E03B
:103E400072E080917B0490917C040E94D407B101C0
:103E500080917B0490917C040E94D40762EA72E016
:103E600080917B0490917C040E949F078091A10423
:103E700081118DC08091A0048823C1F06EEC72E0A6
:103E800080917B0490917C040E94D40769E472E0E5
:103E900080917B0490917C040E94D40769ED72E0CC
:103EA00080917B0490917C040E949F0781E090E0C8
:103EB0009093880480938704012B09F008C18091B6
:103EC0007B0490917C040E94400782E090E09093F4
:103ED00088048093870408C00088F189E02D099543
:103EE000181619060CF4A3CF8091870490918804CA
:103EF00002970CF4ECC0F12CE12C82E0C82ED12CFE
:103F00009AE0792E10928A0410928904D092880443
:103F1000C09287040E942B014B015C010FEF11E05E
:103F2000EAE0EE16F10409F47AC10E942B01681947
:103F300079098A099B09209198043091990440914C
:103F40009A0450919B04621773078407950708F041
:103F500072C18FE694E00E94FF14892B09F4A3C07C
:103F60008FE694E00E9473027C010196C9F2809171
:103F70008704909188048230910509F45EC003970C
:103F800009F474C00E942B014B015C01C9CF8091E0
:103F90007D0490917E04892BB9F16CEA72E08091E6
:103FA0007B0490917C040E94D40760917D04709101
:103FB0007E0480917B0490917C040E94D4078091C0
:103FC00085049091860480359105C1F08B3B91402A
:103FD000A9F063EB72E080917B0490917C040E94D5
:103FE000D407409185045091860470E060E02AE097
:103FF00080917B0490917C040E94AE0680917B04AA
:1040000090917C040E94400765EB72E080917B04F4
:1040100090917C040E94D40769E472E080917B0453
:1040200090917C040E94D40760EC72E080917B0444
:1040300090917C040E949F071DCFD8018C918A32F9
:1040400039F0082E000C990BE816F90609F0DAC0D1
:10405000C8010196F8012181211106C023E030E05A
:1040600030938804209387048C018CCF97012053D0
:1040700031092A30310538F084E090E090938804CB
:10408000809387047FCF4091890450918A04749E65
:10409000C001759E900D1124820F931F90938A0486
:1040A000809389046FCF60919C0470919D048091EE
:1040B0009E0490919F040E94F80032CF0CEF1FEFF6
:1040C0009AE0E916F10429F00DEF1FEF02C00EEFA0
:1040D0001FEF80918704909188040897039720F040
:1040E0008FE694E00E94BE0280908B0490908C0436
:1040F000A0908D04B0908E04640163961FAE1EAE36
:10410000639765961FAE1EAE659767961FAE1EAE8F
:10411000679770E060E0CE018F5A9F4F0E94D714DE
:1041200063962EAD3FAD639781116FC021153105A8
:1041300019F0C9010E94212763961FAE1EAE639736
:1041400067961FAE1EAE679765961FAE1EAE65974B
:104150001C141D040CF0B0C0B401CE018F5A9F4F47
:104160000E94D7148111A8C069961FAE1EAE699730
:104170006B961FAE1EAE6B976D961FAE1EAE6D9703
:10418000CE018F5A9F4F0E94DC076FED72E080E9ED
:1041900093E00E94D407B80180E993E00E944407AD
:1041A00062EF72E080E993E00E94D4076D964EAD15
:1041B0005FAD6D9769966EAD7FAD699780E993E0CD
:1041C0000E943E0180E993E00E94400780E993E06D
:1041D0000E94400768E97AE380E090E00E94F800DE
:1041E000CE01895A9F4F0E94DC0780E090E0892B26
:1041F00009F4CACB0E94A801882309F4C5CB0E9408
:104200000000C2CB0CEF1FEF6BCF67961FAE1EAE48
:10421000679764EE71E0C9010E94902899CF809160
:10422000890490918A04883C91052CF48536910587
:1042300011F0F12CE12C809187049091880404976F
:1042400009F03CCF0091890410918A04083C1105C3
:1042500024F40536110509F055CEAAE0EA16F1045A
:1042600009F032CF36CF68968FAF689769961FAE48
:1042700069976796EEACFFAC6797BFEFEB1AFB0A46
:10428000B701CE018F5A9F4F0E94D714882309F49B
:104290006BCF63962EAD3FAD639767968EAD9FADA6
:1042A0006797BE01695A7F4F820F931F0E94902823
:1042B0006796FFAEEEAE679780918F049091900461
:1042C000C816D90659F10E942B01609377047093A8
:1042D00078048093790490937A048FE694E00E94A6
:1042E000730297FFC0CF0E942B014090770450903B
:1042F00078046090790470907A04641975098609CD
:104300009709409073045090740460907504709005
:1043100076046415750586059705F8F267968EADE7
:104320009FAD67971C141D0424F48815990509F0A6
:104330001BCF63962EAD3FAD639769963FAF2EAF0F
:10434000699765962EAD3FAD65976B963FAF2EAFE3
:104350006B976D969FAF8EAF6D9763961FAE1EAE37
:10436000639765961FAE1EAE659767961FAE1EAE2D
:10437000679706CF88E591E09093700480936F046F
:1043800082EA94E00C94DC078F929F92AF92BF92E6
:10439000CF92DF92EF92FF92CF93DF93EC0168818F
:1043A00079818A819B81611571058105910521F4CF
:1043B00064E279ED8BE597E02DE133EF41E050E0E9
:1043C0000E94E12449015A019B01AC01A7EAB1E432
:1043D0000E9400256B017C01ACEEB4EFA5019401B5
:1043E0000E940E25C60ED71EE81EF91EF7FE06C057
:1043F00081E0C81AD108E10880E8F80AC882D982A9
:10440000EA82FB82C701B6019F77DF91CF91FF90CF
:10441000EF90DF90CF90BF90AF909F908F900895D6
:104420008F929F92AF92BF92CF92DF92EF92FF92C4
:10443000609108017091090180910A0190910B012E
:10444000611571058105910521F464E279ED8BE533
:1044500097E02DE133EF41E050E00E94E124490173
:104460005A019B01AC01A7EAB1E40E9400256B014F
:104470007C01ACEEB4EFA50194010E940E25C60E9E
:10448000D71EE81EF91EF7FE06C081E0C81AD10843
:10449000E10880E8F80AC0920801D0920901E09290
:1044A0000A01F0920B01C701B6019F77FF90EF90D0
:1044B000DF90CF90BF90AF909F908F9008956093C2
:1044C00008017093090180930A0190930B010895EC
:1044D000B0E0A0E0EEE6F2E20C9414255C016B0182
:1044E0007A016115710519F0FB0191838083E11454
:1044F000F10451F0C7010297839730F040E030E0BB
:1045000020E090E072C05E01E5012196F501108186
:10451000812F90E00E947F23892BA9F71D3201F59E
:104520002196F501118101E0E114F10409F4DAC0EA
:10453000F0E1EF16F10409F082C0103359F48881DC
:104540008F7D883509F076C0198122960260F0E1EE
:10455000EF2EF12C812C912CA12C88E0B82E8CC050
:104560001B3221F4E5012296F501118100E0DCCF38
:10457000EAE0EE16F10409F4BBC0F0E1EF16F10435
:1045800009F06DC0E7CF78E0E72EF12C812C912C5B
:10459000A12C60E1B62E70C03FE9310F3A3128F40A
:1045A00039EA332E80C021E09AC0302F3170C11417
:1045B000D10431F0222309F12197F601D183C08380
:1045C00027FF21C060E070E080E090E8311104C076
:1045D0006FEF7FEF8FEF9FE722E230E03093BE0472
:1045E0002093BD04462F372F282F642F732F822F3F
:1045F000CDB7DEB7E1E10C94302501FF04C022976E
:10460000F601D183C083332341F090958095709556
:1046100061957F4F8F4F9F4FE5CF97FFE3CF82E2AA
:1046200090E09093BE048093BD046FEF7FEF8FEF17
:104630009FE7D8CF10E3E114F10409F4A4CF28E0F8
:10464000E216F10409F4A2CF0CF092CF812C912C48
:10465000A12CE0E4BE2E82E0E816F10469F060E0EF
:1046600070E080E090E897010F2C000C440B550B94
:104670000E94BF2449015A0120E060E070E0CB01B4
:1046800027010F2C000C66087708FE0150ED352E2F
:10469000310E39E0331540F43FEB310F3A3108F079
:1046A0007BCF49EC342E310E3E141F040CF07DCF2D
:1046B00027FD15C086169706A806B90678F0A3014F
:1046C00092010E94AF24630D711D811D911D613007
:1046D0007105810520E8920708F465CF2FEF219638
:1046E0001081D3CF103309F42ACF2AE0E22EF12C27
:1046F0009CEC892E982CA82C9CE0B92EBDCF911152
:104700000C948823803219F089508550C8F7089599
:104710009927882708950E94CD2308F481E0089501
:10472000E89409C097FB3EF490958095709561954B
:104730007F4F8F4F9F4F9923A9F0F92F96E9BB2701
:104740009395F695879577956795B795F111F8CF7D
:10475000FAF4BB0F11F460FF1BC06F5F7F4F8F4FE8
:104760009F4F16C0882311F096E911C0772321F0DE
:104770009EE8872F762F05C0662371F096E8862F76
:1047800070E060E02AF09A95660F771F881FDAF7CD
:10479000880F9695879597F90895990F0008550FFA
:1047A000AA0BE0E8FEEF16161706E807F907C0F0B7
:1047B00012161306E407F50798F0621B730B840BBF
:1047C000950B39F40A2661F0232B242B252B21F499
:1047D00008950A2609F4A140A6958FEF811D811D39
:1047E00008950E9404240C9475240E94672438F0D4
:1047F0000E946E2420F0952311F00C945E240C94FA
:10480000642411240C94A9240E94862470F3959F9B
:10481000C1F3950F50E0551F629FF001729FBB27B7
:10482000F00DB11D639FAA27F00DB11DAA1F649F53
:104830006627B00DA11D661F829F2227B00DA11D06
:10484000621F739FB00DA11D621F839FA00D611D8C
:10485000221F749F3327A00D611D231F849F600DAD
:10486000211D822F762F6A2F11249F5750409AF0D6
:10487000F1F088234AF0EE0FFF1FBB1F661F771F62
:10488000881F91505040A9F79E3F510580F00C942D
:104890005E240C94A9245F3FE4F3983ED4F38695FC
:1048A00077956795B795F795E7959F5FC1F7FE2BCD
:1048B000880F911D9695879597F9089597F99F67A9
:1048C00080E870E060E008959FEF80EC0895002498
:1048D0000A941616170618060906089500240A9465
:1048E00012161306140605060895092E0394000CEB
:1048F00011F4882352F0BB0F40F4BF2B11F460FF7A
:1049000004C06F5F7F4F8F4F9F4F089557FD9058A2
:10491000440F551F59F05F3F71F04795880F97FB83
:10492000991F61F09F3F79F087950895121613063D
:104930001406551FF2CF4695F1DF08C0161617066C
:104940001806991FF1CF86957105610508940895A1
:10495000E894BB2766277727CB0197F90895DB01F9
:104960008F939F930E940025BF91AF91A29F800DCE
:10497000911DA39F900DB29F900D11240895A1E267
:104980001A2EAA1BBB1BFD010DC0AA1FBB1FEE1FC9
:10499000FF1FA217B307E407F50720F0A21BB30B14
:1049A000E40BF50B661F771F881F991F1A9469F790
:1049B00060957095809590959B01AC01BD01CF01EC
:1049C0000895052E97FB1EF400940E94F82457FDCD
:1049D00007D00E94BF2407FC03D04EF40C94F824A7
:1049E00050954095309521953F4F4F4F5F4F08951B
:1049F00090958095709561957F4F8F4F9F4F08954B
:104A00000E944A25A59F900DB49F900DA49F800DF4
:104A1000911D11240895B7FF0C9400250E940025D4
:104A2000821B930B08952F923F924F925F926F9249
:104A30007F928F929F92AF92BF92CF92DF92EF922E
:104A4000FF920F931F93CF93DF93CDB7DEB7CA1BAF
:104A5000DB0B0FB6F894DEBF0FBECDBF09942A88DA
:104A6000398848885F846E847D848C849B84AA8482
:104A7000B984C884DF80EE80FD800C811B81AA810F
:104A8000B981CE0FD11D0FB6F894DEBF0FBECDBFDA
:104A9000ED010895A29FB001B39FC001A39F700DC7
:104AA000811D1124911DB29F700D811D1124911D36
:104AB00008955058BB27AA270E9471250C9475248D
:104AC0000E94672438F00E946E2420F039F49F3F42
:104AD00019F426F40C9464240EF4E095E7FB0C948E
:104AE0005E24E92F0E94862458F3BA1762077307E1
:104AF0008407950720F079F4A6F50C94A8240EF409
:104B0000E0950B2EBA2FA02D0B01B90190010C01DD
:104B1000CA01A0011124FF27591B99F0593F50F4F5
:104B2000503E68F11A16F040A22F232F342F44274D
:104B3000585FF3CF469537952795A795F040539545
:104B4000C9F77EF41F16BA0B620B730B840BBAF015
:104B50009150A1F0FF0FBB1F661F771F881FC2F780
:104B60000EC0BA0F621F731F841F48F48795779594
:104B70006795B795F7959E3F08F0B0CF9395880F4E
:104B800008F09927EE0F9795879508950E94DA25EA
:104B90000C9475240E946E2458F00E94672440F003
:104BA00029F45F3F29F00C945E2451110C94A92440
:104BB0000C9464240E94862468F39923B1F355234E
:104BC00091F3951B550BBB27AA2762177307840720
:104BD00038F09F5F5F4F220F331F441FAA1FA9F3B6
:104BE00035D00E2E3AF0E0E832D091505040E695A4
:104BF000001CCAF72BD0FE2F29D0660F771F881F05
:104C0000BB1F261737074807AB07B0E809F0BB0BF7
:104C1000802DBF01FF2793585F4F3AF09E3F51050B
:104C200078F00C945E240C94A9245F3FE4F3983E42
:104C3000D4F3869577956795B795F7959F5FC9F7F4
:104C4000880F911D9695879597F90895E1E0660F75
:104C5000771F881FBB1F621773078407BA0720F0EE
:104C6000621B730B840BBA0BEE1F88F7E095089557
:104C70000E948E2488F09F5798F0B92F9927B7513A
:104C8000B0F0E1F0660F771F881F991F1AF0BA95F0
:104C9000C9F714C0B13091F00E94A824B1E0089582
:104CA0000C94A824672F782F8827B85F39F0B93F74
:104CB000CCF3869577956795B395D9F73EF49095A3
:104CC0008095709561957F4F8F4F9F4F08950E94FB
:104CD000CD2308F48FEF08950E94CD23880B990B04
:104CE00008956927962769277827872778270895C1
:104CF0000E944A25B7FF0895821B930B0895EE0F7B
:104D0000FF1F0590F491E02D09940F931F93CF930B
:104D1000DF938230910510F482E090E0E091C104CD
:104D2000F091C20430E020E0B0E0A0E0309799F4C8
:104D30002115310509F44AC0281B390B24303105EF
:104D4000D8F58A819B816115710589F1FB019383F7
:104D50008283FE0111C04081518102811381481775
:104D60005907E0F04817590799F4109761F0129627
:104D70000C93129713961C933296CF01DF91CF912B
:104D80001F910F9108950093C1041093C204F4CFB2
:104D90002115310551F04217530738F0A901DB0105
:104DA0009A01BD01DF01F801C1CFEF01F9CF909366
:104DB000C2048093C104CDCFFE01E20FF31F8193A3
:104DC00091932250310939832883D7CF2091BF0492
:104DD0003091C004232B41F420910E0130910F013A
:104DE0003093C0042093BF0420910C0130910D0139
:104DF0002115310541F42DB73EB740911001509176
:104E00001101241B350BE091BF04F091C004E2179F
:104E1000F307A0F42E1B3F0B2817390778F0AC01DD
:104E20004E5F5F4F2417350748F04E0F5F1F5093BA
:104E3000C0044093BF04819391939FCFF0E0E0E0E2
:104E40009CCFCF93DF930097E9F0FC013297138258
:104E50001282A091C104B091C204ED0130E020E0C3
:104E60001097A1F420813181820F931F2091BF04FC
:104E70003091C0042817390709F061C0F093C004CD
:104E8000E093BF04DF91CF910895EA01CE17DF07C9
:104E9000E8F54A815B819E0141155105B1F7E901B1
:104EA000FB83EA8349915991C40FD51FEC17FD0785
:104EB00061F4808191810296840F951FE9019983A5
:104EC0008883828193819B838A83F0E0E0E012965D
:104ED0008D919C9113970097B9F52D913C91119765
:104EE000CD010296820F931F2091BF043091C00420
:104EF0002817390739F6309751F51092C2041092ED
:104F0000C104B093C004A093BF04BCCFD383C283B9
:104F100040815181840F951FC817D90761F44E5FF6
:104F20005F4F88819981480F591F518340838A813F
:104F30009B81938382832115310509F0B0CFF093D3
:104F4000C204E093C1049ECFFD01DC01C0CF1382F7
:104F50001282D7CFB0E0A0E0E0EBF7E20C94152589
:104F60008C01009751F4CB010E9485268C01C80169
:104F7000CDB7DEB7E0E10C943125FC01E60FF71F59
:104F80009C0122503109E217F30708F49DC0D901B2
:104F9000CD91DC911197C617D70798F0C530D10590
:104FA00030F3CE0104978617970708F3C61BD70B7B
:104FB0002297C193D1936D937C93CF010E942127B7
:104FC000D6CF5B01AC1ABD0A4C018C0E9D1EA09180
:104FD000C104B091C204512C412CF12CE12C10974A
:104FE00031F58091BF049091C0048815990509F0AE
:104FF0005CC04616570608F058C080910C0190918D
:105000000D01009741F48DB79EB74091100150916A
:105010001101841B950BE817F90708F055C0F093B0
:10502000C004E093BF04F90171836083A0CF8D9128
:105030009C91119712966C90129713967C901397EF
:10504000A815B90559F56C0142E0C40ED11CCA146B
:10505000DB0420F1AC014A195B09DA0112961597BD
:1050600080F06282738251834083D9016D937C9377
:10507000E114F10471F0D7011396FC93EE931297AB
:1050800076CF22968C0F9D1FF90191838083F301C7
:10509000EFCFF093C204E093C10469CF48165906DC
:1050A00008F42C017D01D3019ACFCB010E94852603
:1050B0007C01009749F0AE01B8010E948028C80128
:1050C0000E942127870153CF10E000E050CF9111BB
:1050D0000C94882380538A5028F0865C8062815625
:1050E0008650B0F70895FB01DC0104C08D9101905A
:1050F000801921F441505040C8F7881B990B08953E
:10510000FB01DC0102C001900D9241505040D8F7E4
:105110000895DC0101C06D9341505040E0F70895BF
:10512000FB01DC0101900D920020E1F70895AEE053
:10513000B0E0EDE9F8E20C9421250D891E8986E0A6
:105140008C831A8309838FEF9FE79E838D83AE0143
:10515000475E5F4F6F89788DCE0101960E94BA2815
:105160002F813885020F131FF80110822E96E4E07C
:105170000C943D25ABE0B0E0E0ECF8E20C94132594
:105180007C013B018A01FC0117821682838181FF29
:10519000C8C1CE0101965C01F7019381F30193FD33
:1051A000859193FF81913F01882309F453C1853292
:1051B00039F493FD859193FF81913F01853229F464
:1051C000B70190E00E94AA2AE7CF912C212C312C24
:1051D000FFE1F31538F08B3211F190F4803209F1D0
:1051E000833229F137FC3CC020ED280F2A3050F5DE
:1051F00036FE20C08AE0989E200D1124922E06C013
:105200008D3291F0803371F7689430F8F30193FD9B
:10521000859193FF81913F018111DACF21C068947C
:1052200031F8689432F8F2CF689433F8EFCF68948D
:1052300034F8ECCFEAE02E9E200D1124222E689443
:1052400035F8E4CF8E3229F436FC04C1689436F880
:10525000DDCF8C3619F4689437F8D8CF8836B1F2A0
:10526000982F9F7D95549330E0F08336A1F18337DA
:10527000C1F1833509F063C02801F2E04F0E511CE3
:10528000F801C080D180692D70E036FC02C06FEF5C
:105290007FEFC6010E94942A4C01689437F882017E
:1052A0000AC00C5F1F4FFFE3F98388248394912C7D
:1052B0006501E89437F833FE2DC0522C8114910417
:1052C00071F5552009F468CFB70180E290E00E94A3
:1052D000AA2A5A94F6CFF801808189830E5F1F4F66
:1052E000E4CF2801F2E04F0E511CF801C080D180BC
:1052F000692D70E036FC02C06FEF7FEFC6010E949F
:105300009F2A4C018201D5CFB70180E290E00E9434
:10531000AA2A2A942814190409F0B0F7CECFF6016E
:1053200037FC859137FE81916F01B70190E00E94B3
:10533000AA2A51105A94F1E08F1A9108BFCF8436EF
:1053400019F0893609F077C0F80137FE6BC060812B
:105350007181828193810C5F1F4FF32DFF763F2E69
:1053600097FF09C090958095709561957F4F8F4FFD
:105370009F4F689437F82AE030E0A5010E94DA2AAE
:10538000C82ECA188C2C432C36FE0CC0E89440F86A
:10539000C91440F434FE05C032FC03C0F32DFE7E78
:1053A0004F2E892C44FE95C0FE01EC0DF11D80812D
:1053B000803309F087C0242D297E422E842D8870E9
:1053C000582E43FC95C040FE8FC09C2C821418F4CC
:1053D0002C0C922C981844FE91C0B70180E390E009
:1053E0000E94AA2A42FE09C088E790E041FE02C05E
:1053F00088E590E0B7010E94AA2AC91408F48AC07F
:10540000CA94D12C9FEFC91AD90ACA0CDB1CF60129
:1054100082916F01B70190E00E94AA2AAC14BD04EA
:10542000B1F74FCF60817181072E000C880B990B6B
:105430000E5F1F4F92CFD32CE894D4F82AE030E0CF
:10544000853739F1232D297FD22E8F3601F148F48B
:105450008835A9F0F701868197812B96E2E10C94BB
:105460002F25803749F08837A9F7D4FE02C0689409
:10547000D2F820E130E00DC06894D4F8F6CF34FEC5
:1054800003C0822F8660D82E20E132E002C028E0DF
:1054900030E0F801D7FE0FC0608171818281938175
:1054A0000C5F1F4FA5010E94DA2AC82ECA183D2C96
:1054B000E89437F867CF6081718190E080E00E5FFB
:1054C0001F4FF0CF42FC02C0839478CF8394839423
:1054D00075CF842D867809F471CFF6CFB70180E2BD
:1054E00090E00E94AA2A83948214C0F3512C73CFB7
:1054F000522C5818821408F46ECFF8CF842D867879
:1055000009F47BCF8BE241FE80E247FC8DE2B701DC
:1055100090E071CFB70180E390E00E94AA2A9A94AC
:105520006CCF8FEF9FEF99CFFC01059061507040D9
:105530000110D8F7809590958E0F9F1F0895FC015C
:105540006150704001900110D8F7809590958E0FB2
:105550009F1F08950F931F93CF93DF93182F092F49
:10556000EB018B8181FD09C01FEF0FEF812F902F81
:10557000DF91CF911F910F91089582FF14C02E816A
:105580003F818C819D81281739073CF4E881F9819E
:10559000CF0101969983888310838E819F81019624
:1055A0009F838E83E3CFE885F985812F0995892B29
:1055B000A1F3DACFFA01AA27283051F1203181F185
:1055C000E8946F936E7F6E5F7F4F8F4F9F4FAF4F0B
:1055D000B1E03ED0B4E03CD0670F781F891F9A1F1E
:1055E000A11D680F791F8A1F911DA11D6A0F711DD2
:1055F000811D911DA11D20D009F468943F912AE0DE
:10560000269F11243019305D3193DEF6CF010895C5
:10561000462F4770405D4193B3E00FD0C9F7F6CFF6
:10562000462F4F70405D4A3318F0495D31FD4052BE
:10563000419302D0A9F7EACFB4E0A6959795879554
:1056400077956795BA95C9F7009761057105089533
:105650009B01AC010A2E06945795479537952795DF
:10566000BA95C9F7620F731F841F951FA01D089577
:1056700010E0CDE5D0E004C0FE010E947F26219617
:0A568000CE35D107C9F7F894FFCF2B
:10568A00DEADBEEFFEED00C0010000000000C30465
:10569A00800001005E000000000000005205310D8C
:1056AA009C06C000BC00250FAC09210CBC0AB80836
:1056BA008A05CB122C090D10060FD905C905C50597
:1056CA00C10500000000DE013E016B012B029C01B6
:1056DA007A018E0100000000B60779079C06480689
:1056EA00FF147302530617060C064C02E203010666
:1056FA00F8055E065E06F205EC05E605E005000023
:10570A00000073056B0D280D130D2D0E4F0FBB09ED
:10571A009F0B3E13690FF308D10893069B06E60711
:10572A0090068E06680584069C0FD20F720F8006BB
:10573A0000000000FA06436F6E74656E742D4C65A6
:10574A006E6774683A20005472616E736665722DD2
:10575A00456E636F64696E673A206368756E6B6540
:10576A0064000D0A0057495A6E6574006170692E0B
:10577A007468696E67737065616B2E636F6D00483C
:10578A005454502F2A2E2A20002D2D2D2D2D2D2D0B
:10579A002D2D2D2D2D2D2D2D2D2D2D2D2D2D2D2D2F
:1057AA002D2D2D2D2D2D2D2D2D2D2D2D2D2D2D2D1F
:1057BA002D2D2D2D2D2D2D2D00456E6465726563C1
:1057CA006F2049503A200041303A200041313A20B6
:1057DA00006E616E00696E66006F7666002F7570E6
:1057EA00646174653F6170695F6B65793D35594ED7
:1057FA0036484A48535844554B5A51444A266669D2
:10580A00656C64313D2564266669656C64323D25A4
:10581A0064005265717569736963616F3A2047451F
:10582A00540020485454502F312E3100486F73745D
:10583A003A20003A00557365722D4167656E74000F
:10584A0041726475696E6F2F322E322E3000436FAB
:10585A006E6E656374696F6E00636C6F7365004387
:10586A006F6469676F206465205374617475733A55
:0C587A0020005265746F726E6F3A2000BF
:00000001FF
